:1000000017C60000FDCF0000FBCF0000F9CF0000B5
:10001000F7CF0000F5CF0000F3CF0000F1CF0000D4
:10002000EFCF0000EDCF0000EBCF0000E9CF0000E4
:10003000E7CF0000E5CF0000E3CF0000E1CF0000F4
:10004000DFCF0000DDCF0000DBCF0000D9CF000004
:10005000D7CF0000D5CF0000D3CF0000D1CF000014
:06006000CFCF0000CDCF60
:100C3000BFEFBDBFB8E0BEBF2F923F924F925F9211
:100C40006F927F928F92C7DFB4E64B2EB0E05B2E9F
:100C5000B0ED2B2EB7E03B2EE8DEB0E0B0931101F3
:100C6000B0931201BAE0B0930D01B1E07B2EB0E079
:100C70008B2EBAE05B2EB0E06B2EB0EA4B2EB1E0CB
:100C80003B2EBEE02B2E20DEB0918000BF7DB093C6
:100C90008000B0918000B061B0938000E9DDB1E1E7
:100CA0004B2E20900D01B0E03B2ED8DC22E010EA64
:100CB00003E90A95F1F71A95E1F72A95D1F70000B3
:100CC00000910D010F5F00930D01063638F3D0DD62
:100CD000F8DC02DD102F0030D1F3133009F440C0EE
:100CE000113091F410910D0109E9011728F00091DC
:100CF0000D010F5F00930D01B1E14B2E20900D010E
:100D0000B0E03B2EABDC2CC0123089F400910D0119
:100D1000063628F000910D01015000930D01B1E15C
:100D20004B2E20900D01B0E03B2E98DC19C0143002
:100D300059F4B9E9B0930D01B1E14B2EB9E92B2E6D
:100D4000B0E03B2E8BDC0CC0153051F4B6E6B0930E
:100D50000D01B1E14B2EB6E62B2EB0E03B2E7EDC32
:100D6000B6CF8F907F906F905F904F903F902F9075
:020D7000FFCFB3
:100BD6002F923F924F92B7EEB4B9BFEFBAB9BFEDBD
:100BE600B7B9BCEFB5B9BFEFB8B9BFEFBBB93BDC1E
:100BF600B7E04B2EBBE22B2EB0E03B2ED7DBB5E6A3
:100C0600B0937C00B6E0B0937A00B0E0B0937B007E
:100C1600B0E0B0937E00B0917A00B068B0937A00ED
:0A0C2600BEDB4F903F902F90089521
:10046C00B0E0B4BDB0E0B5BDB0E0B7BDB0E0B8BD74
:10047C00B0E0B5BBB0E0B0936E00B0E0B6BDB0E09C
:10048C00B0938000B0E0B0938100B0E0B0938200F4
:10049C00B0E0B0938500B0E0B0938400B0E0B093CE
:1004AC008900B0E0B0938800B0E0B0938B00B0E06E
:1004BC00B0938A00B0E0B0938700B0E0B0938600B0
:1004CC00B0E0B0936F00B0E0B6BBB0E0B093B0005A
:1004DC00B0E0B093B100B0E0B093B300B0E0B09333
:1004EC00B400B0E0B7BBB0E0B0937000B0E0B09334
:0E04FC00B600B0E0B3BDB0E0B093B20008951A
:1003B200B42D31E0BB2319F0330FBA95E9F730932E
:1003C2000201032F0095009306012092030130924F
:1003D2000401122D232D115020401093000120936F
:1003E2000101E12FF22F0081032BE12FF22F008375
:1003F200E0910301F09104011081009106010123B3
:0C040200E0910301F091040100830895D3
:0E03A40018E605EE0A95F1F71A95E1F70895AF
:100A2A00CF93DF93CDB7DEB72497CDBFDEBF219634
:100A3A00ECDC48EE53E060E070E0E1DDA10160E04B
:100A4A00762FBBDD8B019C01369527951795079567
:100A5A0008831983DADCA20160E0762FD0DD4881B1
:100A6A00598160E0762F440F551F661F771FA5DD59
:100A7A008B019C01A801B9017F936F935F934F93F8
:100A8A004AE050E00881198145DD8C014F915F9160
:100A9A006F917F910883198300E010E020E030E035
:100AAA00041715072607370708F07DC0E0910301F0
:100ABA00F0910401108100910201012BE0910301E0
:100ACA00F091040100838E01F80131960081002320
:100ADA0019F1B0E0BA83BB83342F452F562F672F05
:100AEA008E01F801319620810A811B810217B0E03C
:100AFA001B0768F43F922F9222249BDD2F903F9090
:100B0A000A811B810F5F1F4F0A831B83E9CF762F50
:100B1A00652F542F432F00C0FE0100813F922F9270
:100B2A00202E87DD2F903F90E0910301F091040180
:100B3A001081009106010123E0910301F091040163
:100B4A0000838E01F801319600810023D9F0B0E0CC
:100B5A00BA83BB838E01F801319620810A811B81F9
:100B6A000217B0E01B0768F43F922F92222461DD3E
:100B7A002F903F900A811B810F5F1F4F0A831B83AF
:100B8A00E9CF00C0FE0100813F922F92202E51DD55
:100B9A002F903F908A019B01015010402040304025
:100BAA00A801B90179CFE0910301F0910401108104
:100BBA00009106010123E0910301F09104010083F1
:0C0BCA002396CDBFDEBFDF91CF910895D0
:0A04140000E41FE120E030E008954D
:10063C00022C022CB4E00B1A00E0001530F4B1E0EF
:10064C000B1A000000000000F7CF00000000089516
:00065C009E
:10060800BB27AA279927882700FF04C0840F951FB6
:10061800A61FB71F440F551F661F771F36952795CE
:100628001795079589F730502040100769F79D0105
:040638008C01089594
:1005C400C9019A01AB01B801A1E21A2EAA1BBB1BF7
:1005D400FD010DC0AA1FBB1FEE1FFF1FA217B3070B
:1005E400E407F50720F0A20BB30BE40BF50B661F31
:1005F400771F881F991F1A9469F7609570958095E5
:040604009095089530
:10051E00C801BA01AA1BBB1B51E107C0AA1FBB1F12
:10052E00A617B70710F0A61BB70B881F991F5A9571
:08053E00A9F78095909508953E
:1008C800CF93DF93CDB7DEB72297CDBFDEBF21969A
:1008D80058826982B0E08B1611F4B1E07B1609F0FA
:1008E8008EC0B0E0B0938000B0E0B0938100B0E07B
:1008F800B0938500B0E0B0938400409280003C2F14
:100908004D2F132F242F1F5F2F4FE12FF22F008120
:1009180000938900E32FF42F008100938800E12FD2
:10092800F22F008100938B00E32FF42F00810093B6
:100938008A004DC000918000016000938000009102
:100948008100077E0093810059C0B0918000B26099
:10095800B093800000918100077E009381004EC013
:100968000091800003600093800000918100077E61
:100978000093810043C000918000016000938000D3
:100988000091810008600093810038C000918000C8
:10099800026000938000009181000860009381004C
:1009A8002DC00091800003600093800000918100B9
:1009B80008600093810022C0009180000C7F0093A2
:1009C800800000918100077E0093810017C0BBE082
:1009D8002B1609F4AFCFBCE02B1609F4B6CFBDE057
:1009E8002B1609F4BDCFBEE02B1609F4C4CFBFE027
:1009F8002B1661F2B0E12B16A1F2DECF05C00091F3
:100A080080000C73009380003092050100918100F2
:100A18000329009381002196CDBFDEBFDF91CF91DE
:020A280008952F
:100870002F927ADE009307011093080120E0322FB7
:10088000F2DD40E050E060EA7CE33FDE40E050E033
:1008900068EC72E43ADEC3DD00930F01109310019F
:1008A00020911101309112010217130759F00091A4
:1008B0000F0110911001009311011093120120906B
:0808C0000F0141DE2F900895A5
:1005680027E000E010E0302F412F00C02F934F9379
:100578003F9349DE3F914F912F91B0917A00B0643B
:10058800B0937A0000C000917A0006FDFCCF00917C
:10059800790010E0030F141F302F412F122F022F64
:1005A8000150202F00E001170CF3032F142F16958C
:0C05B80007951695079516950795089570
:0A020E0005E80A95F1F700000895D5
:100546002F92FBDD0F702F92202E0CDE2F90F5DD03
:10055600007F0695069506950695202E64DE2F905B
:020566000895F6
:10016A000BB10F670BB92CC00BB100740BB949C0A6
:10017A000BB109770BB945C00BB104720BB941C079
:10018A000BB100730BB93DC00BB109710BB939C082
:10019A000BB102710BB935C00BB102700BB931C08A
:1001AA000BB108770BB92DC00BB100700BB929C080
:1001BA000BB100710BB925C00BB10F670BB921C088
:1001CA00B0E02B1689F2B1E02B1691F2B2E02B16B1
:1001DA0099F2B3E02B16A1F2B4E02B16A9F2B5E01E
:1001EA002B16B1F2B6E02B16B9F2B7E02B16C1F214
:1001FA00B8E02B16C9F2B9E02B16D1F2BAE02B16E9
:04020A00D9F2089588
:1001400009E0021578F44AE0022DA2DF000F000F4B
:10015000000F000F102F4AE0022D9ADF092F012B0C
:0A016000102F01C0122D012F089589
:10009000992779E004C0991F941708F0941B001F5A
:0800A0007A95C9F70095089557
:10022C0008B10F6108B905B1006C05B94BC008B134
:10023C00007E08B905B10F7B05B96FC008B1097F05
:10024C0008B905B105B969C008B1047E08B905B192
:10025C000F7705B962C008B1007F08B905B10F77F7
:10026C0005B95BC008B1097F08B905B10F7305B9B1
:10027C0054C008B1027F08B905B10F7305B94DC060
:10028C0008B1027E08B905B10F7305B946C008B1B3
:10029C00087F08B905B105B940C008B1007E08B99E
:1002AC0005B10F7305B939C008B1007F08B905B1A4
:1002BC000F7305B932C008B10F6108B905B1006CF4
:1002CC0005B92BC0B0E02B1609F4B1CFB1E02B1659
:1002DC0009F4B4CFB2E02B1609F4B6CFB3E02B1669
:1002EC0009F4B9CFB4E02B1609F4BCCFB5E02B164A
:1002FC0009F4BFCFB6E02B1609F4C2CFB7E02B162A
:10030C0009F4C5CFB8E02B1609F4C7CFB9E02B160A
:0C031C0009F4CACFBAE02B1671F2089564
:06040E00E89403DF0895ED
:1002180047E16627552726F0332312F441DF60E8CB
:0402280048DF08950E
:1000A80000951095209530950F5F1F4F2F4F3F4FAC
:0200B8000895A9
:1000BA00E2DF11F19F938F938EE790E0332351F0A3
:1000CA00369527951795079548175907B4F44F5F42
:1000DA005F4FF4CF80959095019622239AF0000FF6
:1000EA00111F221F481759071CF041505040F5CFE5
:1000FA00002711272227332708C033270FEF102F95
:0C010A002FE7322F8F919F91ACDF0895FA
:10008000002329F4112319F4222309F433230895BA
:0000900070
:10006C0009D039F041585F4F342F220F3695279520
:04007C00362B089582
:10050A00042E152E262E372E0ADF002E112E222E0D
:04051A00332E0895DF
:10032800F6DE81F1E62ED52EC42EB32EA22E912E06
:10033800802E002D112D222D332DE9DE19F16E2589
:100348004C0D5D1D40385307F4F441387FEF5707D3
:10035800FCF088279927AA27BB2770E2B695A795AE
:1003680097958795379527951795079520F4880DC4
:10037800991DAA1DBB1D7A9589F7032F3A2F292F9E
:10038800182F97DE0AC00FEF102F2FE73FE7FACF9D
:0C0398000027102F202F302FF5CF0895E4
:10011600B4DF79F0632F6078220F331F432F5FE738
:10012600451B55275040269530E8232B33279894B6
:0A01360003C04427552766270895EB
:10041E007BDEF1F05523C2F04F31A8F44731C1F025
:10042E0050F44195495E05C035952795179507956A
:10043E004A95D1F70DC04751000F111F221F331FD0
:10044E004A95D1F705C03FE7232F132F032F03C083
:08045E00662309F022DE089577
:060466006894D7DE089542
:10065C00CF93DF93CDB7DEB72297CDBFDEBF219608
:10066C00288239821CC01C2F2D2FE12FF22F31969E
:10067C00008100938900E12FF22F00810093880004
:10068C0014C01C2F2D2FE12FF22F319600810093D7
:10069C008B00E12FF22F008100938A0006C0B1E19C
:1006AC004B1609F3B2E14B1661F32196CDBFDEBFB9
:0606BC00DF91CF910895CB
:0806C20000ED0A95F1F708951F
:1006D8002F923F924F925F9203B1087100930E01DF
:1006E800083111F400E0BBC0B0E0B0930901B09349
:1006F8000A01B0930B01B0930C010091090110910C
:100708000A0120910B0130910C01A801B9014F5F3A
:100718005F4F6F4F7F4F4093090150930A016093D9
:100728000B0170930C0100EA16E821E030E0041791
:1007380015072607370708F051C040910901509165
:100748000A0160910B0170910C0100E211EA27E0A7
:1007580030E0041715072607370710F400E07FC0BC
:1007680000910E01003021F4B6E0B0930E010BC0E9
:1007780000910E01083021F4B4E0B0930E0103C0DB
:10078800B5E0B0930E01B4E14B2EB0E05B2EB0EDB6
:100798002B2EB7E03B2E45D1BAE04B2EB0E05B2EB6
:1007A800B8EB2B2EBBE03B2E3CD1B4E14B2EB0E096
:1007B8005B2EB0EA2B2EBFE03B2E33D1BAE04B2E96
:1007C800B0E05B2EB0ED2B2EB7E03B2E2AD103B163
:1007D80008710831E1F700910E0141C003B1202FE3
:1007E800287100910E0110E007FD1FEF0217B0E01D
:1007F8001B0709F482CF0091090110910A01209189
:100808000B0130910C01303029F4203019F41330E9
:1008180009F4003210F400E022C000910E0100300B
:1008280021F4B3E0B0930E010BC000910E01083023
:1008380021F4B1E0B0930E0103C0B2E0B0930E0111
:10084800BAE04B2EB0E05B2EB8EE2B2EB3E03B2E79
:10085800E8D003B108710831E1F700910E015F900B
:080868004F903F902F9008957E
:0E06CA00EC2FFD2F05900D920197E1F708959A
:00000001FF
